{
  "contractName": "Todolist",
  "abi": [
    {
      "constant": true,
      "inputs": [],
      "name": "TaskCount",
      "outputs": [
        {
          "name": "",
          "type": "uint256"
        }
      ],
      "payable": false,
      "stateMutability": "view",
      "type": "function",
      "signature": "0xbbba4865"
    }
  ],
  "bytecode": "0x608060405260008055348015601357600080fd5b50609e806100226000396000f3fe608060405260043610603f576000357c0100000000000000000000000000000000000000000000000000000000900463ffffffff168063bbba4865146044575b600080fd5b348015604f57600080fd5b506056606c565b6040518082815260200191505060405180910390f35b6000548156fea165627a7a72305820970ea45d30e6a8128ced64f700cb0d3734078156c675cd9f409017c83ef9762f0029",
  "source": "pragma solidity ^0.5.0;\r\n\r\n\r\ncontract Todolist{\r\n    uint public TaskCount=0;\r\n}\r\n",
  "sourcePath": "D:/FreeLance/todo-blockchain/contracts/Todolist.sol",
  "compiler": {
    "name": "solc",
    "version": "0.5.0+commit.1d4f565a.Emscripten.clang"
  },
  "schemaVersion": "3.0.1",
  "updatedAt": "2021-05-09T05:11:31.524Z",
  "devdoc": {
    "methods": {}
  },
  "userdoc": {
    "methods": {}
  }
}